:1000000010C028C027C026C025C024C023C022C0DD
:1000100021C04DC01FC01EC01DC01CC01BC01AC0C7
:1000200019C011241FBECFEDCDBF10E0A0E6B0E097
:10003000E0E1F1E002C005900D92A437B107D9F7D5
:1000400020E0A4E7B0E001C01D92A637B207E1F7B7
:100050004FD05CC0D5CF2091740030917500232B18
:1000600049F4880F990B9260909375008093740007
:1000700082E083BF0895CF93DF93EC0189918111D2
:1000800003C0DF91CF910895E6DF809174009091D5
:100090007500892BD1F7F2CFB89AC09A82E080BF61
:1000A00089B7826089BF87E686BF789408951F92DA
:1000B0000F920FB60F9211248F939F93809174002B
:1000C0009091750080FF12C0C09A96958795909385
:1000D000750080937400892B11F413BE12BE9F919A
:1000E0008F910F900FBE0F901F901895C098EDCF75
:1000F000D3DF80E690E0BFDF2FEF80E792E0215072
:1001000080409040E1F700C00000F3CFF894FFCFAB
:1001100048656C6C6F20776F726C64212063687522
:040120006E670A00FC
:00000001FF
