:1000000010C01DC01CC01BC01AC019C018C017C02A
:1000100016C015C014C013C012C011C010C00FC04C
:100020000EC011241FBECFEDCDBF20E0A0E6B0E092
:1000300001C01D92A136B207E1F706D030C0E0CF73
:1000400082E1809360000895BA98D69AC29ADE98A9
:10005000F7DF90E4DE9A2FEF39E688E12150304057
:100060008040E1F700C00000DE982FEF39E688E11C
:10007000215030408040E1F700C00000C299EACF33
:100080002FEF30E782E0215030408040E1F700C0A0
:100090000000C299DFCF88B3892788BBDBCFF894F3
:0200A000FFCF90
:00000001FF
