:1000000010C028C027C026C025C024C023C022C0DD
:1000100021C020C01FC04CC01DC01CC01BC01AC0C6
:1000200019C011241FBECFEDCDBF10E0A0E6B0E097
:10003000E0EBF2E002C005900D92A236B107D9F7CD
:1000400020E0A2E6B0E001C01D92A936B207E1F7B8
:1000500002D12CC1D5CFCF93C82F45D080E268D034
:1000600080EC66D081E064D08C2F8695869560D038
:100070008C2F8295880F880F807C806159D0CF911A
:1000800047C0CF93DF93C82F2ED082E251D08C2F60
:100090004FD03ED028D083E24BD081E076D0D82F0D
:1000A00080E073D0C82F34D0CE01DF91CF91089576
:1000B0001F920F920FB60F9211248F9386E182BF89
:1000C000809162008F5F8D3340F4809362008F9146
:1000D0000F900FBE0F901F90189510926200F7CFEF
:1000E000D098D1980895D0988DE08A95F1F70000C6
:1000F000D1988DE08A95F1F70000D19A8DE08A952C
:10010000F1F70000D09A8DE08A95F1F7000008958C
:10011000D19A8DE08A95F1F70000D0988DE08A950C
:10012000F1F70000D1988DE08A95F1F7000008956D
:1001300098E087FF28C0D1982DE02A95F1F70000BC
:10014000D0982DE02A95F1F70000D09A880F9150B1
:1001500081F7D19A8DE08A95F1F70000D0989DE063
:100160009A95F1F70000D09A2DE02A95F1F700005A
:10017000D19889B39DE09A95F1F70000869581703A
:1001800091E089270895D19AD7CF282FD19898E068
:1001900080E0880FD0983DE03A95F1F70000C999CA
:1001A00081603DE03A95F1F70000D09A3DE03A9544
:1001B000F1F70000915069F7222381F0D19A9DE078
:1001C0009A95F1F70000D0983DE03A95F1F70000DC
:1001D000D09A9DE09A95F1F700000895D198EFCF5D
:1001E000883078F4E82FF0E0E950FF4F099407C019
:1001F0000FC010C011C012C013C014C015C08EEFC4
:1002000087B93E983F9A86B1856086B93798089538
:1002100081E0F6CF82E0F4CF83E0F2CF84E0F0CF4C
:1002200085E0EECF86E0ECCF87E0EACF369A86B164
:1002300084B195B10895E199FECF1CBA9FBB8EBBE6
:100240006DBBE29AE19A0895E199FECF9FBB8EBB08
:10025000E09A8DB3089587B38C7F87BB88B38360A2
:1002600088BBD69ADE98F89410BE13BE19BE85E0FE
:1002700083BF86E182BF89B7816089BF789480910E
:100280006000E9DE87E0ACDF809162008F3158F4D6
:10029000379ACCDF90936400809363008F32934051
:1002A00018F0DE9AF1CF3798DE98EECFF894FFCFB2
:0202B0008100CB
:00000001FF
