:10000000DBC0E0C0DFC0DEC0DDC0DCC0DBC0DAC00A
:10001000D9C0D8C0D7C0D6C0D5C0D4C0D3C0D2C034
:10002000D1C04348554E47210000000000000000A9
:100030002F00000007000700147F147F14242A7F7C
:100040002A12626408132336495522500005030022
:1000500000001C2241000041221C0014083E08142C
:1000600008083E08080000A060000808080808000A
:100070006060000020100804023E5149453E0042E5
:100080007F400042615149462141454B31181412CD
:100090007F1027454545393C4A49493001710905DA
:1000A000033649494936064949291E0036360000BB
:1000B00000563600000814224100141414141400D1
:1000C000412214080201510906324959513E7C125D
:1000D00011127C7F494949363E414141227F4141CD
:1000E000221C7F494949417F090909013E4149498B
:1000F0007A7F0808087F00417F41002040413F018E
:100100007F081422417F404040407F020C027F7FE5
:100110000408107F3E4141413E7F090909063E41E6
:1001200051215E7F09192946464949493101017F1C
:1001300001013F4040403F1F2040201F3F403840CA
:100140003F63140814630708700807615149454369
:10015000007F41410002040810200041417F00045B
:100160000201020440404040403E5149453E0042A9
:100170007F400042615149462141454B31181412DC
:100180007F1027454545393C4A49493001710905E9
:10019000033649494936064949291E7F0919294626
:1001A00046494949310060600000A81F2200032031
:1001B00000DA028D14AFA1C811241FBECFEDCDBF50
:1001C0002AD140C11DCFD1988AE18A95F1F700C0AC
:1001D000D0988AE18A95F1F700C0D09A8AE18A9591
:1001E000F1F700C0D19A8AE18A95F1F700C008952D
:1001F000D09A8AE18A95F1F700C0D1988AE18A9570
:10020000F1F700C0D0988AE18A95F1F700C008950F
:1002100098E087FF26C0D0982AE12A95F1F700C020
:10022000D1982AE12A95F1F700C0D19A880F915010
:1002300081F7D09A8AE18A95F1F700C0D1989AE1C6
:100240009A95F1F700C0D19A2AE12A95F1F700C0FA
:10025000D09889B39AE19A95F1F700C080958170A2
:100260000895D09AD9CF282FD09898E080E0880FB1
:10027000D1983AE13A95F1F700C0C89981603AE126
:100280003A95F1F700C0D19A3AE13A95F1F700C0FA
:10029000915069F7222381F0D09A9AE19A95F1F76B
:1002A00000C0D1983AE13A95F1F700C0D19A9AE1AD
:1002B0009A95F1F700C00895D098EFCFCF93DF93D0
:1002C00082DF8AE7A5DF80E0A3DFCAEAD1E0FE0192
:1002D00084919EDF2196F1E0C63BDF07C1F7DF91F5
:1002E000CF9186CFCF93C82F6EDF8AE791DF80E072
:1002F0008FDF83ED8DDF8C2F8BDFCF9179CF0F9345
:100300001F93CF93DF93C82F5EDF8AE781DF80E4FE
:100310007FDF8C2F90E00F96EC01CC0FDD1FCC0F10
:10032000DD1FC80FD91F80E073DF10E000E0C75D5C
:10033000DF4FFE01E00FF11F84916ADF0F5F1F4F57
:1003400005301105B1F7DF91CF911F910F9150CF7B
:10035000CF93DF93C82FD62F36DF8AE759DF80E0AF
:1003600057DF8C2F8F7054DF8C2F82958F708061B8
:100370004FDF8D2F8770806B4BDFDF91CF9138CFB0
:10038000CF93DF9360E080E0E3DF1DDF8AE740DFAB
:1003900080E43EDFC0E0D2E080E03ADF2197E1F781
:1003A00027DF80E0DF91CF919DCF0F931F93CF93F5
:1003B000DF93082E000C990B8097EC01CC0FDD1F0A
:1003C000CC0FDD1FC80FD91F80E022DF10E000E056
:1003D000C75DDF4FFE01E00FF11F849119DF0F5F52
:1003E0001F4F05301105B1F7DF91CF911F910F918C
:1003F0000895CF93DF93EC01E6DE8AE709DF80E41E
:1004000007DFFE018491811103C0DF91CF91F0CE0F
:10041000CCDF2196F6CF52DFB3DF89E070DF87E0D3
:100420006EDF86E06CDF85E06ADF2FEF89E698E11A
:10043000215080409040E1F700C0000082E290E04F
:08044000D8DFEBCFF894FFCFE9
:00000001FF
