:1000000037C047C046C045C044C043C042C041C0DD
:1000100040C03FC03EC03DC03CC03BC03AC039C0FC
:1000200038C07F417F00007F79494F41497F0F08E9
:100030007E4F49797F497903017F7F497F4F497F0F
:100040007F097F7F48787F416378487F7F49417F80
:100050000901006000003600080808000000A83F01
:100060002200032001DA028D14AF0010B0A1C800F5
:1000700011241FBECFEDCDBF10E0A0E6B0E0ECE54F
:10008000F3E002C005900D92A836B107D9F736D13A
:1000900063C1B6CFD1988AE18A95F1F700C0D098B4
:1000A0008AE18A95F1F700C0D09A8AE18A95F1F742
:1000B00000C0D19A8AE18A95F1F700C00895D09ADC
:1000C0008AE18A95F1F700C0D1988AE18A95F1F723
:1000D00000C0D0988AE18A95F1F700C0089598E0B1
:1000E00087FF26C0D0982AE12A95F1F700C0D19861
:1000F0002AE12A95F1F700C0D19A880F915081F733
:10010000D09A8AE18A95F1F700C0D1989AE19A9540
:10011000F1F700C0D19A2AE12A95F1F700C0D098F2
:1001200089B39AE19A95F1F700C08095817008959E
:10013000D09AD9CF282FD09898E080E0880FD19816
:100140003AE13A95F1F700C0C89981603AE13A95F1
:10015000F1F700C0D19A3AE13A95F1F700C0915019
:1001600069F7222381F0D09A9AE19A95F1F700C0BD
:10017000D1983AE13A95F1F700C0D19A9AE19A956F
:10018000F1F700C00895D098EFCFCF93DF9382DFCF
:100190008AE7A5DF80E0A3DFCEE5D0E0FE01849111
:1001A0009EDF2196F0E0CD36DF07C1F7DF91CF91DA
:1001B00086CFCF93DF93C82FD62F6CDF8AE78FDFF0
:1001C00080E08DDF8C2F8F708ADF8C2F82958F706F
:1001D000806185DF8D2F8770806B81DFDF91CF910C
:1001E0006ECFCF93DF9360E080E0E3DF53DF8AE7F9
:1001F00076DF80E474DFC0E0D2E080E070DF21973A
:10020000E1F7DF91CF915BCF982F990F990F990F5D
:1002100090718170892B982F990F892B982F990FA6
:10022000990F892B08959F92AF92BF92CF92DF9240
:10023000EF92FF920F931F93CF93DF93CDB7DD27FC
:10024000C450CDBFE82FEE0F1E2F180F08E080E03E
:1002500046DF0150E1F703E07E0185E0E80EF11C86
:1002600099249394910EE12FF0E0EE5DFF4F1491ED
:10027000FE0131966F01812FC7DFF60181936F0177
:1002800016951695EE16FF06B1F714E0023061F4EC
:1002900016E00AC0CE0101965C01F50181915F0173
:1002A0001EDFAC14BD04C9F71150A0F70150192D81
:1002B000B9F6CC5FCDBFDF91CF911F910F91FF9029
:1002C000EF90DF90CF90BF90AF909F9008950F93E5
:1002D0001F93CF93DF938C01DDDE8AE700DF80E49C
:1002E000FEDEE801085F1F4F89919DDFC017D1072F
:1002F000D9F7DF91CF911F910F91E1CECF93DF938B
:10030000CDB7DD27C850CDBF88E0E0E6F0E0DE01E4
:10031000119601900D928A95E1F737DF62DF60E078
:1003200080E047DFB7DE8AE7DADE80E4D8DE81E00E
:100330007ADF82E078DF81E176DF82E074DF80E0DF
:1003400072DF81E170DF85E06EDF89E06CDFB7DEB0
:0C035000CE010196BCDFFFCFF894FFCF78
:08035C0000010203040506077D
:00000001FF
