:1000000010C028C027C026C025C024C023C022C0DD
:1000100021C020C01FC01EC01DC01CC01BC01AC0F4
:1000200019C011241FBECFEDCDBF10E0A0E6B0E097
:10003000E8E6F2E002C005900D92AE36B107D9F7BE
:1000400020E0AEE6B0E001C01D92A437B207E1F7B0
:100050009ED008C1D5CF8AB380678ABB0895DE9A47
:1000600085E88A95F1F70000DE9885E88A95F1F732
:1000700000000895DC9A85E88A95F1F70000DC9885
:1000800008950F931F93CF93DF93D0E0C0E0082F24
:1000900010E0C8010C2E02C0959587950A94E2F7EE
:1000A00080FF0BC0DD9ADBDF2196C830D10589F7D0
:1000B000DF91CF911F910F910895DD98F4CFE1DF8B
:1000C000D9CFCF93C82F862FDCDF8C2FDADFCF91EB
:1000D000D1CF0F931F93CF93DF93EC0168EE73E0C2
:1000E000AED0FB01EC59FF4F608187EFEADFCE0114
:1000F00064E670E0A4D0CB010AE010E0B8019FD024
:10010000FC01EC59FF4F60818BEFDBDFCE01B801C2
:1001100096D0EC01CB01B80192D0FC01EC59FF4F15
:1001200060818DEFCEDFCC59DF4F68818EEFDF919C
:10013000CF911F910F91C5CF883078F4E82FF0E070
:10014000ED55FF4F099407C00CC00DC00EC00FC085
:1001500010C011C012C08EEF87B93E983F9A379AEF
:10016000089581E0F9CF82E0F7CF83E0F5CF84E016
:10017000F3CF85E0F1CF86E0EFCF87E0EDCF369A81
:1001800086B1856086B986B184B195B1089587E05E
:10019000D3DF61DFD29A88EEE82E83E0F82E04E602
:1001A00010E0CAE0D0E0EBDF909373008093720020
:1001B000B70145D0FB01EC59FF4F608187EF81DF2C
:1001C0008091720090917300B80125D0CB01BE01DF
:1001D00036D0FC01EC59FF4F60818BEF72DF8091CC
:1001E000720090917300BE0116D0CB01BE0127D0E2
:1001F000FC01EC59FF4F60818DEF63DF809172004D
:1002000090917300BE011BD0FC01EC59FF4F60813F
:100210008EEF57DFC8CFAA1BBB1B51E107C0AA1F37
:10022000BB1FA617B70710F0A61BB70B881F991F97
:100230005A95A9F780959095BC01CD01089597FB3B
:10024000072E16F4009406D077FD08D0E4DF07FCF3
:1002500005D03EF4909581959F4F089570956195D6
:080260007F4F0895F894FFCFD1
:0E026800F7FBFDFE3F065B4F666D7D077F6F67
:00000001FF
