:1000000010C028C027C026C025C024C023C022C0DD
:1000100021C020C01FC01EC01DC01CC01BC01AC0F4
:1000200019C011241FBECFEDCDBF10E0A0E6B0E097
:10003000E4E8F5E002C005900D92AE36B107D9F7BD
:1000400020E0AEE6B0E001C01D92A437B207E1F7B0
:100050009ED096C2D5CF8AB380678ABB0895DE9AB8
:1000600085E88A95F1F70000DE9885E88A95F1F732
:1000700000000895DC9A85E88A95F1F70000DC9885
:1000800008950F931F93CF93DF93D0E0C0E0082F24
:1000900010E0C8010C2E02C0959587950A94E2F7EE
:1000A00080FF0BC0DD9ADBDF2196C830D10589F7D0
:1000B000DF91CF911F910F910895DD98F4CFE1DF8B
:1000C000D9CFCF93C82F862FDCDF8C2FDADFCF91EB
:1000D000D1CF0F931F93CF93DF93EC0168EE73E0C2
:1000E000D6D0FB01EC59FF4F608187EFEADFCE01EC
:1000F00064E670E0CCD0CB010AE010E0B801C7D0D4
:10010000FC01EC59FF4F60818BEFDBDFCE01B801C2
:10011000BED0EC01CB01B801BAD0FC01EC59FF4FC5
:1001200060818DEFCEDFCC59DF4F68818EEFDF919C
:10013000CF911F910F91C5CF883078F4E82FF0E070
:10014000ED55FF4F099407C00CC00DC00EC00FC085
:1001500010C011C012C08EEF87B987B187B9379A26
:10016000089581E0F9CF82E0F7CF83E0F5CF84E016
:10017000F3CF85E0F1CF86E0EFCF87E0EDCF369A81
:1001800086B1856086B986B184B195B1089587E05E
:10019000D3DF61DFD29ACAE0D0E0F1DF9093730041
:1001A00080937200BC0190E080E0C9D020E030E094
:1001B00040EA50E42ED120E030E040E85AE329D173
:1001C00060936E0070936F00809370009093710045
:1001D00020E030E040E250E418D118160CF055C091
:1001E000DA9A60916E0070916F008091700090912A
:1001F000710074D0CB01BE014AD0FB01EC59FF4F16
:10020000608187EF5EDF60916E0070916F0080917A
:1002100070009091710062D0CB01BE0138D0FC011A
:10022000EC59FF4F608160688BEF4BDF20E030E0DE
:1002300040E251E460916E0070916F008091700017
:1002400090917100E6D04AD0CB01BE0120D0FC01D4
:10025000EC59FF4F60818DEF34DF20E030E048EC57
:1002600052E460916E0070916F00809170009091E7
:100270007100CFD033D0CB01BE0109D0FC01EC59C5
:10028000FF4F60818EEF1DDF88CFDA98AACF97FBF2
:10029000072E16F4009406D077FD08D00BD007FC8B
:1002A00005D03EF4909581959F4F08957095619586
:1002B0007F4F0895AA1BBB1B51E107C0AA1FBB1F9C
:1002C000A617B70710F0A61BB70B881F991F5A95E2
:1002D000A9F780959095BC01CD01089504D068944C
:1002E000B1118DC0089570D088F09F5790F0B92F4C
:1002F0009927B751A0F0D1F0660F771F881F991F7B
:100300001AF0BA95C9F712C0B13081F077D0B1E0D8
:10031000089574C0672F782F8827B85F39F0B93FE8
:10032000CCF3869577956795B395D9F73EF490957C
:100330008095709561957F4F8F4F9F4F0895E894FA
:1003400009C097FB3EF490958095709561957F4F1D
:100350008F4F9F4F9923A9F0F92F96E9BB279395CB
:10036000F695879577956795B795F111F8CFFAF4DB
:10037000BB0F11F460FF1BC06F5F7F4F8F4F9F4F0C
:1003800016C0882311F096E911C0772321F09EE86A
:10039000872F762F05C0662371F096E8862F70E0D0
:1003A00060E02AF09A95660F771F881FDAF7880FAA
:1003B0009695879597F9089557FD9058440F551FC6
:1003C00059F05F3F71F04795880F97FB991F61F0D7
:1003D0009F3F79F087950895121613061406551F4E
:1003E000F2CF4695F1DF08C0161617061806991FBA
:1003F000F1CF86957105610508940895E894BB27AF
:1004000066277727CB0197F908956ED008F48FEF10
:1004100008950AD0A4C095D028F09AD018F095235A
:1004200009F086C08BC0EBCFC7DFA8F39923D9F3BF
:100430005523C9F3950F50E0551FAA27EE27FF2734
:10044000BB2700240894679520F4E20FF31FB41F24
:100450000A1E220F331F441FAA1F6695A9F777951E
:1004600030F4F30FB41F0A1E121E08F46395330F05
:10047000441FAA1F221F769599F7879520F4B40F81
:100480000A1E121E631F440FAA1F221F331F8695C8
:10049000A9F7862F712D602D11249F5750408AF0A7
:1004A000E1F088234AF0EE0FFF1FBB1F661F771F86
:1004B000881F91505040A9F79E3F510570F038C0F9
:1004C0009ECF5F3FECF3983EDCF38695779567957A
:1004D000B795F795E7959F5FC1F7FE2B880F911DA4
:1004E0009695879597F90895990F0008550FAA0BCF
:1004F000E0E8FEEF16161706E807F907C0F0121637
:100500001306E407F50798F0621B730B840B950B39
:1005100039F40A2661F0232B242B252B21F408958E
:100520000A2609F4A140A6958FEF811D811D08952B
:1005300097F99F6780E870E060E008959FEF80EC96
:10054000089500240A941616170618060906089539
:1005500000240A9412161306140605060895092E9F
:100560000394000C11F4882352F0BB0F40F4BF2B0E
:1005700011F460FF04C06F5F7F4F8F4F9F4F08954E
:04058000F894FFCF1D
:0E058400F7FBFDFE3F065B4F666D7D077F6F48
:00000001FF
