:1000000010C028C027C026C025C024C023C022C0DD
:1000100021C020C01FC090C01DC01CC01BC01AC082
:1000200019C011241FBECFEDCDBF10E0A0E6B0E097
:10003000E8E7F2E002C005900D92AE36B107D9F7BD
:1000400020E0AEE6B0E001C01D92A737B207E1F7AD
:100050008AD010C1D5CF8AB38C688ABB0895DF9A45
:1000600085E38A95F1F70000DF9885E38A95F1F73B
:1000700000000895DA9A85E38A95F1F70000DA988E
:1000800008950F931F93CF93DF93D0E0C0E0082F24
:1000900010E0C8010C2E02C0959587950A94E2F7EE
:1000A00080FF0BC0DB9ADBDF2196C830D10589F7D2
:1000B000DF91CF911F910F910895DB98F4CFE1DF8D
:1000C000D9CFCF93C82F862FDCDF8C2FDADFCF91EB
:1000D000D1CF0F931F93CF93DF93EC0168EE73E0C2
:1000E000A2D0FB01EC59FF4F608187EFEADFCE0120
:1000F00064E670E098D0CB010AE010E0B80193D03C
:10010000FC01EC59FF4F60818BEFDBDFCE01B801C2
:100110008AD0EC01CB01B80186D0FC01EC59FF4F2D
:1001200060818DEFCEDFCC59DF4F68818EEFDF919C
:10013000CF911F910F91C5CF1F920F920FB60F92C3
:1001400011248F939F93809171009091720001967A
:1001500090937200809371009F918F910F900FBECA
:100160000F901F901895D398DB9ABA98C29A73DFB4
:1001700010BE13BE19BE87E083BF81E089BFF8942B
:10018000C1E0B2990DC02FEF81EE94E02150804084
:100190009040E1F700C00000B29BFECFC0936E001C
:1001A00080916E00813031F08091730090917400E5
:1001B00090DFE7CF789412BE109272001092710017
:1001C0002FEF89E698E1215080409040E1F700C090
:1001D000000082B790E09093700080936F00F894D5
:1001E0008091710090917200092E000CAA0BBB0B3C
:1001F000BA2FA92F982F882740916F005091700037
:10020000052E000C660B770B840F951FA61FB71FDA
:100210008093730090937400A0937500B093760060
:1002200010926E00BDCF97FB072E16F4009406D0F7
:1002300077FD08D00BD007FC05D03EF49095819552
:100240009F4F0895709561957F4F0895AA1BBB1B22
:1002500051E107C0AA1FBB1FA617B70710F0A61BC6
:10026000B70B881F991F5A95A9F780959095BC01E7
:08027000CD010895F894FFCFC1
:0E027800F7FBFDFE3F065B4F666D7D077F6F57
:040000050080006E09
:00000001FF
