:1000000010C028C027C026C025C024C023C022C0DD
:1000100021C020C01FC01EC01DC01CC01BC01AC0F4
:1000200019C011241FBECFEDCDBF10E0A0E6B0E097
:10003000E4ECF1E002C005900D92AE36B107D9F7BD
:1000400020E0AEE6B0E001C01D92AF36B207E1F7A6
:1000500083D0B6C0D5CF8AB380678ABB0895DE9AB5
:1000600085E88A95F1F70000DE9885E88A95F1F732
:1000700000000895DC9A85E88A95F1F70000DC9885
:1000800008950F931F93CF93DF93D0E0C0E0082F24
:1000900010E0C8010C2E02C0959587950A94E2F7EE
:1000A00080FF0BC0DD9ADBDF2196C830D10589F7D0
:1000B000DF91CF911F910F910895DD98F4CFE1DF8B
:1000C000D9CFCF93C82F862FDCDF8C2FDADFCF91EB
:1000D000D1CF0F931F93CF93DF93EC0168EE73E0C2
:1000E00048D0FB01EC59FF4F608187EFEADFCE017A
:1000F00064E670E03ED0CB010AE010E0B80139D0F0
:10010000FC01EC59FF4F60818BEFDBDFCE01B801C2
:1001100030D0EC01CB01B8012CD0FC01EC59FF4FE1
:1001200060818DEFCEDFCC59DF4F68818EEFDF919C
:10013000CF911F910F91C5CFE199FECF1CBA9FBB04
:100140008EBB6DBBE29AE19A0895E199FECF9FBB09
:100150008EBBE09A8DB308957EDF64E68FE790E072
:10016000EBDF8FE790E0F1DF80936E0090E0B1DF8E
:10017000F8CF97FB072E16F4009406D077FD08D031
:100180000BD007FC05D03EF4909581959F4F0895C4
:10019000709561957F4F0895AA1BBB1B51E107C065
:1001A000AA1FBB1FA617B70710F0A61BB70B881F07
:1001B000991F5A95A9F780959095BC01CD01089596
:0401C000F894FFCFE1
:0E01C400F7FBFDFE3F065B4F666D7D077F6F0C
:00000001FF
