:1000000010C01DC01CC01BC01AC019C018C017C02A
:1000100016C015C014C013C012C011C010C00FC04C
:100020000EC011241FBECFEDCDBF20E0A0E6B0E092
:1000300001C01D92A136B207E1F79ED0C6C0E0CF45
:10004000D0988AE18A95F1F700C0D1988AE18A9523
:10005000F1F700C0D19A8AE18A95F1F700C0D09AF1
:100060008AE18A95F1F700C00895D19A8AE18A95CC
:10007000F1F700C0D0988AE18A95F1F700C0D198D5
:100080008AE18A95F1F700C0089598E087FF28C0BB
:10009000D1982AE12A95F1F700C0D0982AE12A9553
:1000A000F1F700C0D09A880F915081F7D19A8AE178
:1000B0008A95F1F700C0D0989AE19A95F1F700C0BF
:1000C000D09A2AE12A95F1F700C0D19889B39AE134
:1000D0009A95F1F700C08695817091E0892708957F
:1000E000D19AD7CF282FD19898E080E0880FD09868
:1000F0003AE13A95F1F700C0C99981603AE13A9541
:10010000F1F700C0D09A3AE13A95F1F700C091506A
:1001100069F7222381F0D19A9AE19A95F1F700C00C
:10012000D0983AE13A95F1F700C0D09A9AE19A95C1
:10013000F1F700C00895D198EFCFCF93DF93D82F78
:10014000C62F7EDF80EAA1DF8D2F9FDF8C2F9DDF02
:10015000DF91CF918ACFCF93C82F72DF80EA95DFEE
:100160008C2F93DF6DDF81EA90DF80E0BBDFC82F4B
:100170007CDF8C2FCF9108956AE580E0DEDF8FE190
:100180009EE40197F1F700C0000064E680E1D5DF4E
:100190008FE19EE40197F1F700C0000067E180E283
:1001A000CCDF8FE19EE40197F1F700C0000068E129
:1001B00080E3C3DF8FE19EE40197F1F700C0000008
:0E01C00080E3C9DF80936000FFCFF894FFCF8B
:00000001FF
