:1000000010C01DC01CC01BC01AC019C018C017C02A
:1000100016C015C014C013C012C011C010C00FC04C
:100020000EC011241FBECFEDCDBF20E0A0E6B0E092
:1000300001C01D92A136B207E1F79CD0CAC0E0CF43
:10004000D1988AE18A95F1F700C0D0988AE18A9523
:10005000F1F700C0D09A8AE18A95F1F700C0D19AF1
:100060008AE18A95F1F700C00895D09A8AE18A95CD
:10007000F1F700C0D1988AE18A95F1F700C0D098D5
:100080008AE18A95F1F700C0089598E087FF26C0BD
:10009000D0982AE12A95F1F700C0D1982AE12A9553
:1000A000F1F700C0D19A880F915081F7D09A8AE178
:1000B0008A95F1F700C0D1989AE19A95F1F700C0BE
:1000C000D19A2AE12A95F1F700C0D09889B39AE134
:1000D0009A95F1F700C0809581700895D09AD9CF94
:1000E000282FD09898E080E0880FD1983AE13A958F
:1000F000F1F700C0C89981603AE13A95F1F700C084
:10010000D19A3AE13A95F1F700C0915069F722236C
:1001100081F0D09A9AE19A95F1F700C0D1983AE12E
:100120003A95F1F700C0D19A9AE19A95F1F700C09B
:100130000895D098EFCFCF93DF93D82FC62F80DFCD
:1001400080EAA3DF8D2FA1DF8C2F9FDFDF91CF917E
:100150008CCFCF93C82F74DF80EA97DF8C2F95DF89
:100160006FDF81EA92DF80E0BBDFC82F7EDF8C2F5C
:10017000CF9108958FE19EE40197F1F700C0000050
:1001800064E380E0D8DF8FE19EE40197F1F700C0DF
:10019000000062E280E1CFDF8FE19EE40197F1F79A
:1001A00000C0000063E280E2C6DF8FE19EE40197B9
:1001B000F1F700C0000064E280E3BDDF8FE19EE460
:1001C0000197F1F700C0000080E3C3DF8093600077
:0601D000FFCFF894FFCF01
:00000001FF
