S0190000493243204453313330375F7570646174652E73726563E9
S113000010C028C027C0F8C025C024C023C022C007
S113001021C020C01FC01EC01DC01CC01BC01AC0F0
S113002019C011241FBECFEDCDBF10E0A0E6B0E093
S1130030E4E5F6E002C005900D92AC36B107D9F7BD
S113004020E0ACE6B0E001C01D92A137B207E1F7B1
S113005071D1FEC2D5CF8AB388608ABB8AE18A9502
S1130060F1F700C08AB380688ABB08958AB38860B8
S11300708ABB8AB38F778ABB8AE18A95F1F700C07D
S11300808AB3877F8ABB08958AB3877F8ABB8AB382
S11300908F778ABB8AE18A95F1F700C08AB38068BA
S11300A08ABB08958AB3877F8ABB8AE18A95F1F770
S11300B000C08AB38F778ABB8AE18A95F1F700C0C2
S11300C08AB380688ABB8AE18A95F1F700C08AB353
S11300D0877F8ABB089520E018C09AB398609ABBC2
S11300E088231CF49AB3977F9ABB9AE19A95F1F707
S11300F000C09AB39F779ABB880F9AE19A95F1F75B
S113010000C09AB390689ABB2F5F283030F3BCDFED
S113011008958AB3877F8ABB20E080E012C0880FED
S11301209AB39F779ABB9AE19A95F1F700C0CB995D
S113013081609AB390689ABB9AE19A95F1F700C0EE
S11301402F5F283060F308958AB387608ABB0895CF
S11301508BB381608BBB85E38A95F1F700008BB389
S11301608E7F8BBB85E38A95F1F7000008958BB3EE
S113017084608BBB85E38A95F1F700008BB38B7F9A
S11301808BBB0895CF93DF93D82FC0E013C08D2F7E
S113019090E00C2E02C0959587950A94E2F780FFB3
S11301A004C08BB382608BBB03C08BB38D7F8BBBCE
S11301B0CFDFCF5FC83058F3DF91CF910895CF934D
S11301C0C82F862FDFDF8C2FDDDFD1DFCF9108959D
S11301D087B38D6F87BB88B3826088BB85B7826025
S11301E085BF80B5826080BD8BB780628BBF8BB7C3
S11301F080648BBF789408951F920F920FB60F926C
S113020011242F933F934F935F936F937F938F9317
S11302109F93AF93BF93EF93FF9360E087EFCFDF9C
S113022060E08BEFCCDF60E08DEFC9DF60E08EEF44
S1130230C6DFB19914C02FEF80E792E021508040CF
S11302409040E1F700C00000B19BFECF80916D00AB
S11302508F5F80936D00863010F010926D00FF91D7
S1130260EF91BF91AF919F918F917F916F915F912A
S11302704F913F912F910F900FBE0F901F901895A3
S11302806AE0DAD18295807F890F0895CF93C82FD1
S1130290E2DE80ED20DF8C2F1EDFE8DEDCDE81ED88
S11302A01ADF37DFC82FFEDEE1DE9C2F92959F70A8
S11302B0CF70892F880F880F980F892F880F8C0F84
S11302C0CF910895CF93DF93D82FC62FC4DE80ED4E
S11302D002DF8D2F00DF8C2FD3DFFDDEC7DEDF9141
S11302E0CF91089588B3846088BB2FEF89E698E1A5
S11302F0215080409040E1F700C0000088B38B7F1C
S113030088BB0895E199FECF1CBA90E09FBB8EBBD9
S11303106DBB8CB384608CBB8CB382608CBB089542
S1130320E199FECF90E09FBB8EBB8CB381608CBB08
S11303308DB3089509DF4CDF87B38E7F87BB88B305
S1130340816088BB87B3846087BB80B78F7780BFA9
S113035082E09CDF8093700081E098DF80936F00DF
S113036080E094DF80936E0080FD04C060E88BEF32
S113037026DF03C060E08BEF22DF80917000CAE0CB
S11303806C2F5AD1E82FF0E0EF59FF4F608187EFCF
S113039016DF809170006C2F4FD1E92FF0E0EF59F8
S11303A0FF4F60818BEF0BDF80916F006C2F44D186
S11303B0E82FF0E0EF59FF4F60818DEF00DF80916F
S11303C06F006C2F39D1E92FF0E0EF59FF4F6081B6
S11303D08EEFF5DEB09909C060E080E073DF60E085
S11303E081E070DF60E082E06DDF909170008091C9
S11303F06C0098133AC090916F008091600098133C
S113040034C070DF809160008150809360008091DF
S11304106C00815080936C0028C080E037DF8093AB
S11304206E00CAE06C2F08D1E82FF0E0EF59FF4FBF
S113043060818DEFC4DE80916E006C2FFDD0E92FBA
S1130440F0E0EF59FF4F60818EEFB9DEB0990DC037
S11304502FEF80E792E0215080409040E1F700C008
S11304600000B09BFECF10926D0080916D00813032
S1130470A1F231C0B09914C02FEF80E792E021506F
S113048080409040E1F700C00000B09BFECF809117
S113049070008F5F80937000883110F010927000AC
S11304A06091700082E00EDF80917000CAE06C2FD2
S11304B0C3D0E82FF0E0EF59FF4F608187EF7FDE74
S11304C0809170006C2FB8D0E92FF0E0EF59FF4F06
S11304D060818BEF74DE80916D00823059F231C0FF
S11304E0B09914C02FEF80E792E0215080409040F3
S11304F0E1F700C00000B09BFECF80916F008F5FDA
S113050080936F008C3310F010926F0060916F0035
S113051081E0D8DE80916F00CAE06C2F8DD0E82F87
S1130520F0E0EF59FF4F60818DEF49DE80916F005D
S11305306C2F82D0E92FF0E0EF59FF4F60818EEFEE
S11305403EDE80916D00833059F234C0B09918C0FA
S11305502FEF80E792E0215080409040E1F700C007
S11305600000B09BFECF80916C008F5F80936C0085
S1130570883110F010926C0060916C0080E0C2DE53
S113058080E0CEDE80936C00CAE06C2F55D0E82F5B
S1130590F0E0EF59FF4F608187EF11DE80916C002E
S11305A06C2F4AD0E92FF0E0EF59FF4F608160686B
S11305B08BEF05DE80916D00843041F238C0B09934
S11305C018C02FEF80E792E0215080409040E1F77F
S11305D000C00000B09BFECF809160008F5F8093CD
S11305E060008C3310F0109260006091600081E034
S11305F089DE81E095DE8093600060E88BEFDFDDCB
S113060080916000CAE06C2F17D0E82FF0E0EF591A
S1130610FF4F60818DEFD3DD809160006C2F0CD093
S1130620E92FF0E0EF59FF4F60818EEFC8DD809134
S11306306D00853021F28CCE991B79E004C0991F9E
S1130640961708F0961B881F7A95C9F78095089528
S1070650F894FFCF48
S10F06540A3F065B4F666D7D077F6F0058
S9030000FC
