:1000000010C015C025C013C012C011C010C00FC051
:100010000EC00DC00CC00BC00AC009C008C007C08C
:1000200006C011241FBECFEDCDBF33D034C0E8CF02
:10003000D29ADA9AD398DB9A85B7826085BF939A71
:100040008BB780618BBF8BB780648BBF789408952A
:100050001F920F920FB60F9211242F938F939F939D
:10006000CB990FC02FEF80E792E021508040904065
:10007000E1F700C00000CB9BFECF8BB394E0892753
:100080008BBB9F918F912F910F900FBE0F901F9060
:0A0090001895CEDFFFCFF894FFCFE4
:00000001FF
