:1000000010C024C014C013C012C011C010C00FC053
:100010000EC00DC00CC00BC00AC009C008C007C08C
:1000200006C011241FBECFEDCDBF31D032C0E8CF06
:1000300087B38B6F87BBC29AD29ADA9A85B78260F0
:1000400085BF8BB780648BBF789408951F920F9201
:100050000FB60F9211242F938F939F93B2990FC0D5
:100060002FEF80E792E0215080409040E1F700C000
:100070000000B29BFECF8BB394E089278BBB9F918E
:100080008F912F910F900FBE0F901F901895D0DF7A
:06009000FFCFF894FFCF42
:00000001FF
