:1000000010C01DC01CC01BC01AC019C018C017C02A
:1000100016C015C014C013C012C011C010C00FC04C
:100020000EC011241FBECFEDCDBF20E0A0E6B0E092
:1000300001C01D92A136B207E1F737D03CC0E0CF36
:100040008AB3806B8ABBD69880E18DB98BB3806C04
:100050008BBB08958FB988E021E193E12DB99DB95B
:100060008150E1F70895CF93C82FDF9880E4F2DF45
:1000700080E0F0DF8C2FEEDFDF9ACF910895CF93F1
:10008000C82FDF9880E4E6DF89E0E4DF8C2FE2DF31
:10009000DF9ACF9108958DB188618DB9769B03C0A9
:1000A00080B3769A089580E00895CADF80E0DBDFB0
:0A00B0008AEAE5DFFFCFF894FFCFE6
:00000001FF
